:1000000000400020C519000005180000111800006C
:10001000151800002118000025180000000000003D
:100020000000000000000000000000003118000087
:1000300035180000000000004118000045180000BD
:1000400051180000551800006118000065180000E4
:100050007118000075180000811800008518000054
:10006000911800009518000000000000A118000081
:10007000A5180000B1180000B5180000C118000054
:10008000C5180000D1180000D5180000E1180000C4
:10009000E5180000F11800004127000001190000D8
:1000A00005190000111900001519000021190000A0
:1000B0002519000031190000351900004119000010
:1000C0004519000051190000551900006119000080
:1000D00065190000711900007519000081190000F0
:1000E000851900009119000095190000A119000060
:1000F000A51900000000000000000000C119000068
:08010000B51900000000000029
:0C1000000000A7BE458B0000001000009F
:101800000148004701480047C5190000C119000000
:101810000148004701480047C1190000C1190000F4
:101820000148004701480047C1190000C1190000E4
:101830000148004701480047C1190000C1190000D4
:101840000148004701480047C1190000CD1B0000B6
:101850000148004701480047C1190000C1190000B4
:101860000148004701480047C1190000C1190000A4
:101870000148004701480047C1190000C119000094
:101880000148004701480047C1190000C119000084
:101890000148004701480047C1190000C119000074
:1018A0000148004701480047C1190000C119000064
:1018B0000148004701480047C1190000C119000054
:1018C0000148004701480047C1190000C119000044
:1018D0000148004701480047C1190000C119000034
:1018E0000148004701480047C1190000C119000024
:1018F0000148004701480047491E0000C119000087
:101900000148004701480047C1190000C119000003
:101910000148004701480047C1190000C1190000F3
:101920000148004701480047C1190000C1190000E3
:101930000148004701480047C1190000C1190000D3
:101940000148004701480047C1190000C1190000C3
:101950000148004701480047C1190000C1190000B3
:101960000148004701480047C1190000C1190000A3
:101970000148004701480047C1190000C119000093
:101980000148004701480047C1190000C119000083
:101990000148004701480047C1190000C119000073
:1019A0000148004701480047C1190000C119000063
:1019B0000148004701480047C1190000C119000053
:1019C000FEE7FFFF08B500F035F800BEFEE71EF0A9
:1019D000040F0CBFEFF30880EFF309807146124A41
:1019E000104700BEFEE700BEFEE71EF0040F0CBF6E
:1019F000EFF30880EFF3098071460C4A104700BEF0
:101A0000FEE71EF0040F0CBFEFF30880EFF3098030
:101A10007146074A104700BEFEE700BEFEE700BE63
:101A2000FEE700BEFEE77047E3190000FF19000063
:101A3000171A000000B583B000F0DAFA304B314AD3
:101A40001360314A1360314B314A32498B4204D220
:101A50001168196004330432F7E72A4B1A682E4BD9
:101A60009A4200D0FEE7284B1A682C4B9A42F9D1D3
:101A7000234B2B4A13602B4A13602B4B02E00022AE
:101A80001A600433294A9342F9D3254B1B6813B9D2
:101A9000244B1B6803B1FEE700F0B6FA694601A8C3
:101AA00000F0DAFA224C234BE41AA4100025AC42D1
:101AB00014DC214C214BE41AA4100025AC4213DCA9
:101AC0000099019800F086F805461D4C1D4BE41A5C
:101AD000A410002C0EDC284600F09AFA154B53F89F
:101AE000253098470135E2E7144B53F825309847E5
:101AF0000135E3E7013C134B53F824309847E8E7FE
:101B0000BABADECA00000020E00100200000002078
:101B100000680000E40100207856341232547698B0
:101B2000E401002034020020E401002038020020FB
:101B3000701B0000701B0000701B0000701B000079
:081B4000701B0000701B000087
:101B48000068000000000020E40100200068000098
:101B58000000001000000010E401002038020020FE
:081B6800000000100000001055
:101B70000A4B1B680A4AA2FB03239B09013BB3F1F2
:101B8000807F09D2074A5360074BE02183F8231076
:101B90000023936007231360704700BF04000020F8
:101BA000D34D621010E000E000ED00E0064B1B6832
:101BB00023B9054B4FF47A721A607047024A1368D2
:101BC000013B1360704700BF2402002008B5FFF7F7
:101BD000EDFF08BD08B5FFF7CBFF094B1B7D13F0E8
:101BE000010FFAD0BFF34F8F0649CA6802F4E062D2
:101BF000054B1343CB60BFF34F8F00BFFDE700BF22
:101C00000050004000ED00E00400FA0580B483B00D
:101C100000AF0346FB7197F9073003F01F02074935
:101C200097F907305B09012000FA02F241F82320FE
:101C300000BF0C37BD4680BC704700BF00E100E02C
:101C400080B483B000AF0346FB7197F9073003F00F
:101C50001F02074997F907305B09012000FA02F2D9
:101C6000203341F8232000BF0C37BD4680BC7047AD
:101C700000E100E080B500AF194B9B889BB2184A89
:101C800023F0F0039BB29380164B00221A60164B90
:101C900001221A60154B01221A60154B1B889BB25A
:101CA0001BB223F030031BB243F020031AB2104BD7
:101CB00092B21A800E4B1B889BB21BB223F00C030E
:101CC0001BB243F008031AB2094B92B21A801520D6
:101CD000FFF7B6FF074B01221A7000BF80BD00BF9F
:101CE000002000408805044284000C4288000C4219
:101CF00000600040E801002080B485B000AF78604B
:101D000039600023FB60FA687B689A420CD23A681B
:101D1000FB6813441978074AFB6813440A461A7093
:101D2000FB680133FB60EEE700BF1437BD4680BCA3
:101D3000704700BFFC01002080B485B000AF786020
:101D400039600023FB60FA687B689A420BD23A68DC
:101D5000FB6813440649FA680A4412781A70FB6853
:101D60000133FB60EFE700BF1437BD4680BC70470E
:101D70000802002080B584B000AF0346FB800B460C
:101D8000BB8013467B80284B21221A80264B48F6C5
:101D90008F629A841520FFF753FFBB88234A136094
:101DA0007B88234A1360234B00221A60214B1B6857
:101DB000214A1360FB88DBB25B00DAB21F4B1A705A
:101DC000194BB3F84C309BB2174A43F400739BB2E3
:101DD000A2F84C30144BB3F84C309AB2124940F68A
:101DE000FF5313409BB2A1F84C30124B1B685A1C96
:101DF00010490A600C4A1249CB5C13730A4B0F4A14
:101E000012781A76084B00221A770E4B02221A70AB
:101E1000054B9B889BB2FB601520FFF7F7FE00BFC8
:101E20001037BD4680BD00BF00300040EC010020EF
:101E3000F0010020F4010020F8010020120200202F
:101E4000FC010020E801002080B582B000AF152021
:101E5000FFF7F6FE374B9B889BB27B60364B1B78B7
:101E6000022B3CD17B6803F00303002B2AD1334BB8
:101E70001A68334B1B689A421ADB2F4B03221A70E5
:101E80002C4B11221A802F4B1B689BB2294A013B15
:101E90009BB213822C4B1B78264A43F00103DBB222
:101EA0001376244B00221A771520FFF7AFFE3DE092
:101EB000224B1B685A1C21490A601E4A2349CB5CED
:101EC000137333E07B6803F00303022B03D1152067
:101ED000FFF79CFE2AE0184B04221A7026E0164BEE
:101EE0001B78032B1FD17B6803F00803002B16D04F
:101EF0001049174B1B685A1C154802600A7AD1B268
:101F0000144AD1541520FFF781FE114B1A680D4B6E
:101F10001B689A420ADB084B04221A7006E0064B43
:101F200004221A7002E0044B04221A7000BF083722
:101F3000BD4680BD00300040E8010020F4010020D3
:101F4000EC010020F001002012020020FC01002022
:101F5000F801002008020020184B1B8803F018032A
:101F6000182B17D8DFE803F00D16161616161616DE
:101F700020161616161616162016161616161616ED
:101F800025000E4BB3F8443403F003020C4BD3404E
:101F90000C4A1360094B1B8803F00702094B1B68AE
:101FA000D340094A13607047064B4FF400421A6051
:101FB000F0E7064B1A68034B1A60EBE7002000407D
:101FC0000024F40028020020040000202C0200203D
:101FD00008B50023054A1381A2F5B0621380A2F868
:101FE000443493809385FFF7B7FF08BD80250040F8
:101FF00008B5FFF7EDFF024A024B9A6008BD00BF2B
:102000000000000000ED00E008B5FFF7A5FF08BDE7
:10201000FEE7000008B503460C4A12685AB10B4AA5
:102020001068033323F003030344094A934206D89C
:10203000064A136008BD054A06491160EFE700F043
:1020400013F80C2303604FF0FF30F3E71402002075
:10205000003800203802002001230360014B0B6090
:10206000704700BF08000020014B1868704700BF90
:1020700010000020002B2DE9F0471E46BBBF03F1E6
:1020800000431E4600232D2388B0149FDDE9121A59
:1020900027F02007462F1446109D0B7004D0452FC3
:1020A00000D10135022300E0032307AA049206AA07
:1020B000CDE902A2CDE900352246334601F084FD88
:1020C000472F804602D1119BDB0726D5462F08EB10
:1020D000050911D198F80030302B0AD100220023D5
:1020E0002046314604F036F918B9C5F10105CAF8A1
:1020F0000050DAF80030994400220023204631468F
:1021000004F028F938B93022079B4B4505D2591CF9
:1021100007911A70F8E7CDF81C904046079B159A76
:10212000A3EB0803136008B0BDE8F087F7B50029FA
:10213000B4BF2D232B230446B8BF4942092904F814
:10214000022B437021DD0DF107031F460A2691FB88
:10215000F6F506FB1511092D01F1300103F8011CFC
:1021600003F1FF32294609DC3031023B02F8011C41
:10217000BB42224604D3101A03B0F0BD1346E6E773
:1021800013F8012B04F8012BF2E730231944837074
:10219000021DC170EFE700002DE9F04F91B00C4631
:1021A0001A9F93461E46054602F0F0FD0368184646
:1021B000099300F0B3FD00230E933B680A900733A8
:1021C00023F0070303F1080294F81880D4F800A064
:1021D0003A60D3E90023C4E91223D4E9127929F043
:1021E00000430B934FF0FF32A64B38460B9904F097
:1021F000E3F868BB4FF0FF32A24B38460B9904F06E
:10220000BDF828BB002200233846494604F0ACF84C
:1022100010B12D2384F843309B4F9C4BB8F1470FEE
:1022200098BF1F4603234FF0000923612AF00403DF
:10223000236000965B460FAA2146284600F0E2F98B
:10224000013040F090804FF0FF3011B0BDE8F08FCA
:102250003A464B463846494604F0AEF810B18C4F2A
:102260008C4BDBE763684AF48062591C0DA80EA909
:1022700040D1062363604FF0000C0DF13303CDE92C
:10228000012363682260CDE9030800933A464B4678
:10229000CDE9051C2846FFF7EDFE08F0DF03472BCC
:1022A000074609D10D9BD81C02DB6268934247DDCB
:1022B000A8F102085FFA88F8B8F1650F0D9924D8E3
:1022C0000139424604F150000D91FFF72FFF0E9A9D
:1022D00081461318012A236102DC2268D10701D547
:1022E000013323619DF83330002BA2D02D2384F8D5
:1022F00043309EE7B8F1670F00F06E81B8F1470FE9
:10230000B9D1002BB7D10123B4E7B8F1660F19D1C9
:10231000002963680CDD216113B92268D20702D558
:1023200001330B4423610D9B4FF00009A365D9E7EE
:1023300013B92268D00701D50233F3E70123F1E78F
:102340004FF06708DDE90D32934205DB2268236117
:10235000D107E8D50133E5E7002BCCBF0123C3F15A
:1023600002031344DEE723685A0507D423693A467B
:1023700059462846B047013029D164E7B8F1650FC6
:1023800040F2D780D4E912010022002303F0E2FFDB
:1023900088B30123404A59462846B04701303FF4EC
:1023A00052AFDDE90D239A4202DB2368D8070ED530
:1023B000DDE9092359462846B04701303FF443AFD1
:1023C000002704F11A080E9B013BBB4209DC23687D
:1023D0009F0700F1FD80E0680F9B9842B8BF184648
:1023E00033E70123424659462846B04701303FF4BF
:1023F0002AAF0137E7E70D9B002B2BDC0123264A90
:1024000059462846B04701303FF41DAF0D9B23B914
:102410000E9B13B92368D907D9D5DDE9092359469D
:102420002846B04701303FF40EAF4FF0000804F1EA
:102430001A090D9B5B42434501DC0E9B97E7012384
:102440004A4659462846B04701303FF4FCAE08F1F1
:102450000108EEE70E9AA36D9A42A8BF1A46002A19
:10246000904607DD134659463A462846B0470130A4
:102470003FF4E9AE04F11A034FF0000A28EAE878C5
:102480000B9315E0FFFFEF7F186500001465000057
:10249000206500001C6500002465000001230B9AE4
:1024A00059462846B04701303FF4CDAE0AF1010A43
:1024B000D4F85890A9EB08035345EFDCDDE90D2370
:1024C0009A424F4414DB2368DA0711D40E9B0D990E
:1024D000A3EB0902A3EB01099145A8BF9146B9F10D
:1024E000000F0DDC002729EAE97904F11A0818E049
:1024F000DDE9092359462846B0470130E6D1A2E676
:102500004B463A4659462846B0470130EAD19AE64A
:102510000123424659462846B04701303FF493AE66
:102520000137DDE90D239B1AA3EB0903BB42EFDC66
:102530004DE70E9A012A01DCDB0738D501233A4624
:1025400059462846B04701303FF47DAEDDE9092306
:1025500059462846B047013007F101073FF473AEF2
:10256000D4E912010E9B002203F1FF38002303F08F
:10257000F1FEC0B943463A4659462846B0470130B5
:102580000DD160E60123424659462846B047013046
:102590003FF459AE01370E9B013BBB42F2DC4B4688
:1025A00004F15002E4E6002704F11A08F3E70123DE
:1025B000E1E70123424659462846B04701303FF43F
:1025C00042AE0137E3680F9A9B1ABB42F1DC02E787
:1025D000002704F11908F5E7002B3FF494AE4FF003
:1025E000000CCDE9051C0DF133012260CDE9030893
:1025F000CDE9012100933A464B462846FFF73AFDC4
:1026000007464FE62DE9F04791461F468A680B6959
:1026100006469342B8BF1346C9F8003091F84320EC
:102620000C46DDF8208012B10133C9F80030236870
:10263000990642BFD9F800300233C9F80030256846
:1026400015F0060507D104F1190AE368D9F800204E
:102650009B1AAB4229DC94F843302268003318BF40
:10266000012392062ED404F1430239463046C04776
:10267000013021D02368E56803F00603042B18BF5E
:102680000025D9F800204FF0000908BFAD1AA36853
:10269000226908BF25EAE5759342C4BF9B1AED186D
:1026A0001A344D451AD1002008E00123524639461C
:1026B0003046C047013003D14FF0FF30BDE8F0870E
:1026C0000135C2E73020E11881F843005A1C94F824
:1026D00045102244023382F84310C4E70123224606
:1026E00039463046C0470130E6D009F10109D8E744
:1026F0002DE9F04301F1430C0C46097E85B06E29AB
:102700001746064698460C9A00F0B38022D86329F3
:1027100036D00AD8002900F0B980582900F083800B
:1027200004F1420584F8421032E0642901D069299D
:10273000F6D120681368050603F104012AD51B6849
:102740001160002B03DA2D225B4284F843206F488E
:102750000A2239E0732900F09D8008D86F2920D023
:102760007029DDD1236843F02003236003E075293D
:1027700017D07829D4D17823654884F8453055E0BE
:10278000136804F14205191D1B68116084F842307A
:1027900001238CE01B6810F0400F116018BF1BB2C2
:1027A000CFE713682568181D1060280601D51B683F
:1027B00002E06806FBD51B886F2914BF0A22082295
:1027C0005248002184F843106568002DA560C0F2CE
:1027D0009580216821F004012160002B3DD1002D5E
:1027E00040F08E806546082A0BD12368DB0708D5A8
:1027F000236962689A42DEBF302305F8013C05F187
:10280000FF35ACEB05032361CDF800803B4603AAFE
:1028100021463046FFF7F6FE01304DD14FF0FF3034
:1028200005B0BDE8F083394884F845101368216885
:102830001D1D1B6815600A060BD5CA0744BF41F071
:10284000200121601BB9226822F0200222601022A0
:10285000B7E74D0648BF9BB2EFE76546B3FBF2F121
:1028600002FB1133C35C05F8013D0B460029F5D18D
:10287000B9E713682568181D6169106028061B6890
:1028800001D5196002E06A06FBD519800023654670
:102890002361B9E71368191D11601D686268002182
:1028A000284602F09BFA08B1401B60606368236110
:1028B000002384F84330A7E723692A463946304687
:1028C000C0470130AAD023689B0713D4E068039B5C
:1028D0009842B8BF1846A3E701234A463946304616
:1028E000C04701309AD00135E368039A9B1AAB4286
:1028F000F2DCEBE7002504F11909F5E7002BACD178
:10290000037804F1420584F842306CE72665000044
:10291000376500002DE9F04F9A468B6816465A1E1F
:10292000B2F5AE7F88BF6FF4AE7287B085BF9B18DB
:102930000193002340F25D1388464FF0000B8CBFDB
:102940008B6001930B68074643F4F06348F81C3B27
:102950000C4645465A46D946CDE903BBCDF808B0EA
:10296000A16881B133681B78492B71D04DD8392BC0
:1029700040D8312B80F088802D2B00F0908015D826
:102980002B2B00F08C80B9F1000F03D0236823F4C7
:1029900080732360013A012A00F2EA80454500F283
:1029A000DC800126304607B0BDE8F08F2E2B00F00A
:1029B0009F80302BE7D1206810F4807F64D0019B8A
:1029C00020F08000206009F101091BB1013B0131B9
:1029D0000193A160A368013BA360236901332361D4
:1029E0007368013B002B736040F3AC8033680133A4
:1029F0003360B5E7452B00F08580462B6AD0412B2C
:102A0000C1D1012ABFD1022246E0652B7AD018D865
:102A1000542B66D011D84E2BB5D1002A46D1B9F12E
:102A2000000F45D1216801F4E060B0F5E06F3FD1BF
:102A300021F4F061216001222EE0592B1ED0612B80
:102A4000DEE76E2BE9D015D8662B43D0692B9AD1DF
:102A5000BBF1000F38D1B9F1000F97D1216801F413
:102A6000E060B0F5E06F95D121F4F06121604FF0A6
:102A7000010B11E0742B34D0792B84D1BBF1070FFB
:102A800081D14FF0080B07E012EB0B0F7FF47BAF07
:102A9000216821F4C07121602B7001359AE721680B
:102AA00008067FF570AF21F08001F4E7022A47D0D5
:102AB000BBF1010F03D0BBF1040F7FF464AF0BF146
:102AC000010B5FFA8BFBE7E7BBF1030FF7D0BBF11C
:102AD000050FF2E7BBF1020F7FF455AF4FF0030B88
:102AE000DAE7BBF1060F7FF44EAF4FF0070BD3E7E9
:102AF000216888057FF547AF21F420712160CDF86A
:102B00000890C9E7216801F4A060B0F5806F06D095
:102B100048057FF538AFB9F1000F3FF43BAF8805AA
:102B200058BF029821F4F06158BFA9EB000041F4AE
:102B3000C07158BFCDE9030521604FF00009ABE734
:102B40000322A9E7D4F880313146384605929847E8
:102B5000059A00283FF404AF15E7D4F87C313246DB
:102B600015F8011D384698472369013B236115E795
:102B70000BF1FF33062B0AD8BBF1020F67D9ABF17B
:102B8000030B5FFA8BFBA5EB0B0B5D454AD123686A
:102B9000DA051FD55B0567D415F8011C2369652983
:102BA00003F1FF3305F1FF3B23610DD045290BD025
:102BB000D4F87C31324638469847236915F8021C10
:102BC000013BA5F1020B2361D4F87C313246384633
:102BD00098475D46266816F0100676D12E70236859
:102BE00003F4C063B3F5806F41D1029BA9EB0303EB
:102BF0005A42002B48D141460022384600F0B8FE28
:102C00002568804615F0020F8946DAF8003046D074
:102C10001A1DCAF800201B68C3E90089E368013364
:102C2000E360BFE6D4F87C31324615F8011D384622
:102C300098472369013B2361A7E7D4F87C313246EA
:102C400015F8011D384698472369013B2361454526
:102C5000F3D8A6E6D4F87C31324615F8011D384683
:102C600098472369013B23614545F3D899E6039BC7
:102C7000002BC0D004990A2332460131384600F0B7
:102C800003FF039B049DC21A04F26F139D4228BFE9
:102C900004F5B7750E49284600F020F8ABE71F1D74
:102CA00015F00405CAF80070B5D11F6802460B463E
:102CB00003F082FB20B1284600F00CF83860ADE745
:102CC0004046494603F0D6FBF8E700266AE600BF17
:102CD00048650000004870470000C07F0EB46FF0E8
:102CE000004100B59CB01DAB029006900791049185
:102CF0000848094953F8042B0591006802A901937B
:102D000002F08CFD0022029B1A701CB05DF804EBEF
:102D100003B07047100000200802FFFF034613F8BD
:102D2000012B002AFBD1181A013870472DE9F04118
:102D30000F46904602F036FB04460D46B8F1000FF0
:102D400011D0C7F30A53C3F16B03002B0BDD002432
:102D50001B0503F17F5505F5401522462B4603F070
:102D600091F804460D4620462946BDE8F081000052
:102D70002DE9F04F1F460023A1B0834638460E468A
:102D800017921C9301F0FFFF80460068FFF7C6FF13
:102D90004FF0000904464FF0000A1B961B9B1A785F
:102DA0000D2A32D8092A36D2002A3ED000230D93AC
:102DB0001B9D2B78302B40F0AC806B78582B01D0CA
:102DC000782B67D10D9B029701931CAB0093894A26
:102DD0001DAB1BA9584601F0FBFC10F0070406468A
:102DE00005D0062C2BD1002301351B950D93179B85
:102DF000002B40F0A6850D9BE3B14A460AF1004343
:102E00001046194621B0BDE8F08F2B2A15D02D2A87
:102E100004D0202ACAD101331B93BFE701220D92AF
:102E20005A1C1B925B78002BC2D1179B1B96002B60
:102E300040F085854A465346E2E70022EFE71C9AB8
:102E40003AB135211EA802F0A0FB1C99584602F0A9
:102E500012F8013C042C06D8DFE804F00A0314172A
:102E60000A00DDE91E9A3107C1D54AF0004ABEE7E3
:102E70001D9ADDE91E9302F2334223F4801343EAE4
:102E8000025AF0E7DFF870A1EDE76FF0004A4FF06B
:102E9000FF39E8E71B9B5A1C1B925B78302BF9D05B
:102EA000002BA4D0012300250A2207931B9B069523
:102EB000089304951B980778A7F13003D9B2092924
:102EC00029D92246D8F8001002F0B0FD002831D0F0
:102ED00000203B460246049C0590652B01D0452B03
:102EE00014D124B910B9079B002B9ED000241B9E3F
:102EF000731C1B9373782B2B78D02D2B70D04FF035
:102F0000000CA3F13007092F7CD91B964FF0000E5F
:102F10009AE00023C7E7049901300829D7BF069932
:102F200002FB053502FB01330693049B1B90013322
:102F30000493BFE71B9B1A191B92049A1B5D002A7E
:102F400037D00246049CA3F13001092913D901218D
:102F50000591C2E71B9B01305A1C1B925B78302BFA
:102F6000F8D0A3F13102082A00F2F0841B9A0892EB
:102F7000024600200446B3F1300E00F1010112D0E8
:102F80000A440A27214600EB040C8C4513D1211872
:102F9000082904F10104044419DC0A21069B01FB01
:102FA00003E3069300211B9B581C1B905B7808468B
:102FB000C9E70498D3E7082901F1010103DC069B66
:102FC0007B430693E1E71029D8BF7D43DDE7102C52
:102FD000DCBF0A2101FB05E5E4E70123059381E756
:102FE0004FF0010CB31C1B93B3788AE74FF0000C31
:102FF000F8E700BF506500000000F07F1B9B5F1CDE
:103000001B975B78302BF9D0A3F13107082F3FF6DF
:103010007DAFA3F1300E1B9B09931B9B5F1C1B977D
:103020005B78A3F13008B8F1090F37D909997F1AF5
:10303000082F44F61F6737DCBE45A8BFBE46BCF16B
:10304000000F01D0CEF1000E002C51D100287FF4EA
:10305000CEAE079A002A7FF4CAAE059A002A7FF402
:10306000E4AE4E2B27D021DC492B7FF4DEAEA44901
:103070001BA801F0E1FD00283FF4D7AE1B9BA1493E
:10308000013B1BA81B9301F0D7FD10B91B9B01331B
:103090001B93DFF884A24FF00009A8E60A2101FB88
:1030A0000E3EAEF1300EB8E7BE46C8E7692BDED063
:1030B0006E2B7FF4BAAE94491BA801F0BDFD002829
:1030C0003FF4B3AE1B9B1B78282B0ED11EAA8F4951
:1030D0001BA801F0C5FD052807D11F9BDDF87890DE
:1030E00043F0FF4A4AF4E00A81E6DFF834A2D2E76F
:1030F000AEEB02030793049B0698002B08BF234600
:10310000102C0493A046A8BF4FF0100802F040FE18
:10311000092C81468A4613DC079B002B3FF467AEDF
:10312000079B7EDD162B65DC794A02EBC30E4A460F
:10313000DEE90001534602F0A5FE81468A4656E6C6
:10314000734B03EBC80353E9122302F09BFE0646C0
:1031500028460F4602F01CFE02460B463046394612
:1031600002F0DAFC0F2C81468A46D5DD079BA4EBE2
:1031700008089844B8F1000F40F39A8018F00F0344
:103180000AD063494A4601EBC301D1E90001534625
:1031900002F078FE81468A4638F00F0877D0B8F5FD
:1031A0009A7F4BDD4FF00008CDF81080CDF82080DD
:1031B000CDF8188022234FF00009DFF85CA1CBF88E
:1031C0000030089B002B3FF412AE1C99584601F0CA
:1031D00052FE0699584601F04EFE0499584601F0F9
:1031E0004AFE0899584601F046FE4146584601F00D
:1031F00042FEFCE5079AC4F125039342B6DB444D39
:10320000C4F10F0405EBC4014A46D1E9000153465D
:1032100002F038FE079B1C1B05EBC405D5E9002313
:1032200089E713F1160FA1DB394A4846A2EBC30226
:10323000D2E90023514602F04FFF7EE700234846C3
:1032400051461D46334E4FEA2818B8F1010F21DCD4
:103250000BB181468A462F4BAAF1547A03EBC50580
:103260004A46D5E90001534602F00CFE2A4B0A46B5
:103270000B402A4981468B4294D8A1F580118B429C
:1032800086BF4FF0FF39DFF89CA002F1547A00238B
:1032900005937BE018F0010F06D006EBC503D3E9D8
:1032A000002302F0EFFD012301354FEA6808CCE767
:1032B000EDD0C8F1000818F00F020AD0144B4846B0
:1032C00003EBC2035146D3E9002302F005FF814618
:1032D0008A465FEA2818DAD0B8F11F0F24DD4FF0D4
:1032E0000008CDF81080CDF82080CDF8188022237A
:1032F0004FF000094FF0000ACBF8003061E700BF43
:1033000019650000A36500002165000064650000E8
:10331000E0650000B86500000000F07F0000A07CC0
:103320000000F8FFFFFFEF7F18F0100318BF6A23BB
:103330004846059351460023A14DB8F1000F00F314
:1033400013810BB181468A46059BBBB1CAF30A5370
:10335000C3F16B03002B514610DD1F2B40F310818E
:10336000342BD8BF4FF0FF324FF00009CFBF4FF0E2
:103370005C7A203B02FA03F303EA010A00220023ED
:103380004846514602F0E6FF0028A8D1069B049A61
:10339000009308992346584601F0BFFD0890002885
:1033A0003FF400AF079A079B002AC3F10003A8BFB0
:1033B00000234FF000080E9322EAE2731693CDF833
:1033C0001080089B5846596801F021FD069000289E
:1033D0003FF4F0AE089B0C301A6903F10C01023285
:1033E000920001F009FD1EAB01931DAB00934A460C
:1033F00053465846CDE90A9A02F04AF81C90002834
:103400003FF4D8AE0121584601F013FE0490034664
:1034100000283FF4CFAE1D9D1E9A002DABBF0E9B22
:10342000169BEE185C1B059BA8BF169CA5EB03051D
:103430001544644B05F1FF35B8BF0E9E9D42C2F1A5
:10344000360280F2AF805B1B1F2BA2EB03024FF012
:10345000010700F39C80002507FA03F30F93B718C8
:10346000059BBE4214441C443346A8BF3B46A342BE
:10347000A8BF2346002BC2BFFF1AE41AF61A0E9B00
:10348000BBB11A460499584601F072FE0490002818
:103490003FF490AE01461C9A584601F0D3FD0990C6
:1034A00000283FF487AE1C99584601F0E4FC099BC4
:1034B0001C93002F7ADC079B002B08DD169A0699D7
:1034C000584601F055FE069000283FF473AE002CDC
:1034D00008DD22460699584601F098FE069000281D
:1034E0003FF468AE002E08DD32460499584601F0DC
:1034F0008DFE049000283FF45DAE069A1C99584654
:1035000001F0F2FE804600283FF454AE0024C36868
:103510000499C4600C9301F0CDFEA04254DA0C9BD8
:10352000F3B9B9F1000F1BD1CAF31303C3B92AF0E1
:1035300000431B0D1B05B3F1D66F11D9D8F8143019
:103540001BB9D8F81030012B0ADD4146012258463C
:1035500001F05CFE0499804601F0ACFE002868DCB6
:10356000059B002B72D130E618F0010F04D0D5E98D
:10357000002302F087FC01234FEA68080835DCE6E7
:103580004FF0FF3202FA03F303EA0909F6E6C5F148
:103590007F4505F57F0505F57B45E23507FA05F51D
:1035A0000F975CE7012300250F9358E73A461C99D3
:1035B000584601F02BFE1C9000287FF47CAFF9E503
:1035C0007865000002FCFFFFCDF824A040F0898060
:1035D0000C9ACAF3130342B3AF4A934256D1059BE8
:1035E0004846EBB15346AD4A4FF0FF311A40B2F1B5
:1035F000D46F18D8120DC2F16B0301FA03F398428D
:1036000044D1A74B099A9A4202D101303FF4D2AD7E
:10361000A24B099A4FF000091A4002F5801A9FE761
:103620004FF0FF33EBE70B46E9E77BBBB9F1000F47
:103630002CD105995346994AF1B102EA0A01B1F138
:10364000D66F19DCB1F15C7F7FF751AE0023954A4C
:103650004846CDE914325146DDE9142302F012FC4C
:1036600081468A4600297FF4B0AD00287FF4ADADD5
:103670002223CBF80030A8E51340A3F580136FEAAE
:10368000135A4FF0FF396FEA0A5A69E79DB1099B57
:103690001D423FF465AF0C9B059A4846514673B1F5
:1036A000FFF744FB02460B46DDE90A0102F034FA5B
:1036B00081468A4654E70F9B13EA090FE9E7FFF7B3
:1036C00035FB02460B46DDE90A0102F023FA00222F
:1036D000002381468A4602F03DFE00287FF407AEB3
:1036E0003EE70499404601F022FF00224FF080435C
:1036F00006460F4602F042FE002875D00C9B002BB8
:1037000047D00026684F684D099B23F000431B0DEE
:103710001B050F930F9A654B9A4240F0CF80DDE96D
:103720000A23CDE91423099B4846A3F1547A514654
:1037300001F038FE02460B463046394602F0A2FB45
:103740004A46534602F0E8F90B465449584A194094
:10375000914281465ED90B9B02F15472934203D190
:103760000A9B01333FF426AD4FF0FF39DFF830A15B
:103770001C99584601F07FFB0699584601F07BFBE7
:103780000499584601F077FB4146584601F073FB17
:1037900017E6B9F1000F19D1099BC3F31303E3B97D
:1037A0000022414B3046394602F0DEFDC8B9002206
:1037B000404B3046394602F065FB04460D4605F1A4
:1037C000004318941993DDE918679DE7B9F1010FDB
:1037D00003D1099B002B3FF48AAD0026364F00240D
:1037E00091E70C9C334DEAE7324B002230463946D4
:1037F00002F048FB0C9B04460D4633B901F100432F
:1038000010901193DDE910677EE702460B46CDE983
:103810001023F7E703F1547A059B002BA8D12AF077
:1038200000431B0D0F9A1B059A425646A0D129460C
:10383000204602F0D7FD02F0BBFA0B4602462946AD
:10384000204602F067F90C9B04460D4633B9B9F1E6
:10385000000F03D1CAF31306002E6AD00AA3D3E9DE
:1038600000232046294602F07FFD00287FF4ADACFE
:1038700007A3D3E900232046294602F093FD002840
:103880003FF476AFA1E400BF9535A094FFFFDF3F82
:1038900035E5AF350000E03FFFFF0F000000F07F8F
:1038A000FFFFEF7F000050390000F03F0000E07F95
:1038B000FFFF9F7C0000E03F0000F0BF059B13B3BB
:1038C0000F9BB3F1D46F1ED825A3D3E90023204664
:1038D000294602F053FD90B12946204602F0AAFD88
:1038E000002808BF012002F053FA0C9B04460D4645
:1038F000D3B901F1004312901393DDE912670F9AD7
:1039000007F1D6639F1ADDE90A0101F04BFD02467B
:103910000B463046394602F0B5FADDE90A2302F0DB
:10392000FBF881468A4677E702460B46CDE912232B
:10393000E3E70DA3D3E9002302F016FD9FE7002380
:103940000D931B9B179A1360FFF755BA652B4FF029
:1039500000023FF442AB012114460591FFF7BFBAC4
:103960000000C0FFFFFFDF419535A094FFFFCF3F70
:10397000054B10B41B68054C1B6A002B08BF23467F
:1039800010BCFFF7F5B900BF100000207400002044
:103990002DE9F0478046894692461E460F463D4631
:1039A000089815F8014B01F0EBF92044437813F027
:1039B000080332D12D2C32D101227C78BD1C002E7F
:1039C0005DD0102E09D1302C07D12B7803F0DF0306
:1039D000582B4FD110266C780235002A14BF4FF0B7
:1039E00000416FF000410027B1FBF6FC384606FBB2
:1039F0001C1EA4F13003092B17D81C46A64223DD58
:103A00007B1C07D084451CD301D1A64519DB0127B7
:103A100000FB064015F8014BEBE72F46BFE72B2CC8
:103A200004BFBD1C7C781A46C9E7A4F14103192BD9
:103A300001D8373CE2E7A4F16103192B04D8573CC5
:103A4000DCE74FF0FF37E5E77B1C08D1222308466F
:103A5000C8F80030BAF1000F07D1BDE8F08702B115
:103A60004042BAF1000FF8D00FB105F1FF39CAF8A2
:103A70000090F2E73024002EAFD10826ADE7302CBD
:103A8000A3D00A26A9E7000037B5064C064D2468E6
:103A9000246A002C08BF2C460094FFF779FF03B07E
:103AA00030BD00BF10000020740000202DE9F74F4A
:103AB00003690C698046A342C0F28480013C01F195
:103AC000140700F1140657F8245056F82400013565
:103AD000B0FBF5F54FEA840C06EB0C0307EB0C0981
:103AE00001939DB34FF0000A3846B646D34650F8CE
:103AF000042B93B205FB03A3120C4FEA134A05FBF8
:103B000002A29BB2ABEB0303DEF800B04FEA124A0D
:103B10001FFA8BFB5B441FFA82FBDEF80020814515
:103B2000CBEB124202EB23429BB243EA02434FEA41
:103B3000224B4EF8043BDAD256F80C3033B9019BD5
:103B4000043B9E421A4631D3C8F81040404601F06B
:103B5000B1FB002826DB30464FF0000C013557F84A
:103B6000041BD0F800E08BB2ACEB03031FFA8EF21B
:103B700013440A0CC2EB1E4202EB23429BB243EAFF
:103B80000243B9454FEA224C40F8043BE7D256F8CD
:103B9000242006EB84032AB9043B9E421A460BD329
:103BA000C8F81040284603B0BDE8F08F1268043B07
:103BB000002AC9D1013CC4E71268043B002AEFD1B6
:103BC000013CEAE70020EEE72DE9F04F16461F46DC
:103BD000456A95B00446DDF88480CDE902673DB9B9
:103BE000102001F0E1F86062C0E901550560C56090
:103BF000636A196851B15A68012393404A608B6027
:103C0000204601F038F90022636A1A603B1EAFBFFC
:103C10000023012223F000430393ACBFC8F8003017
:103C2000C8F80020AE4BDDF80C8033EA08031BD146
:103C300042F20F73209A1360029B23B9C8F313005A
:103C4000002800F04585229B53B9A64B21E0A64BE6
:103C500006930833229A1360069815B0BDE8F08FDA
:103C6000A04B06930333F5E7DDE90267002200234A
:103C70003046394602F06EFB824660B10123209A3D
:103C80001360229B002B00F02085984B229A136032
:103C9000013B0693E0E712AB019313AB009332466E
:103CA0003B46204601F0F4FBC8F30A558346002D3D
:103CB0007DD0B046C7F3130343F07F5949F4401950
:103CC000A5F2FF35CDF840A00022894B4046494679
:103CD00001F020FF7CA3D3E9002302F0D3F87CA3FA
:103CE000D3E9002301F018FF064628460F4602F0EC
:103CF0005FF879A3D3E9002302F0C4F802460B462B
:103D00003046394601F008FF06460F4602F06AFBCE
:103D10000022824600233046394602F025FB48B196
:103D2000504602F045F832463B4602F013FB08B914
:103D30000AF1FF3ABAF1160F5AD8DDE902236D49AC
:103D400001EBCA01D1E9000102F02CFB002851D09F
:103D500000230AF1FF3A0D93129B5D1B6B1E079324
:103D600043BF0023C5F1010907934FF00009BAF1E1
:103D7000000F41DB079BCDF830A05344079300238D
:103D800008931E9B092B00F28F80052BC4BF043BB8
:103D90001E931E9BC8BF0025A3F10203D8BF0125B7
:103DA000032B00F28D80DFE803F07B7D2F6FDDE9D0
:103DB00012531D4405F23240202813DDC0F14000AB
:103DC000029B08FA00F805F2124023FA00F048EAD4
:103DD000000001F0DDFF01238046A1F1F879013DEB
:103DE000109371E7029BC0F1200003FA00F0F0E7A6
:103DF0000123B0E70D90AFE7CAF100030893002359
:103E0000A9EB0A090C93BCE7012309931F9B002B24
:103E100074DD984604930022666A7260042202F1FF
:103E20001400984271686ED9204600F0F0FF636A72
:103E300030601B68B8F10E0F069300F2ED80002D84
:103E400000F0EA80DDE90223BAF1000FCDE90E238C
:103E500077DD284A0AF00F034FEA2A1602EBC30364
:103E6000F006D3E90023CDE90A2368D5DDE90E0188
:103E7000214B0325D3E9082302F02EF9CDE90201F5
:103E800006F00F061C4F4FE0012309931F9B53447C
:103E900003F1010804934346012BB8BF0123BAE79D
:103EA0000023B2E70023F0E70125002309951E93C4
:103EB0004FF0FF3300220493984612231F92AAE783
:103EC00001230993F4E700BF61436F63A787D23FE3
:103ED000B3C8608B288AC63FFB799F501344D33FF9
:103EE0000000F07FA9650000A065000025650000C6
:103EF0000000F83FE0650000B8650000012304936E
:103F000098461A46DAE701317160520087E7F107F7
:103F100008D5DDE90A01D7E9002301F0B3FFCDE9B7
:103F20000A01013576100837002EF0D1DDE90A23A9
:103F3000DDE9020102F0D0F8CDE902011BE0022523
:103F4000A0E700F0A480DDE90E01CAF10006A04B55
:103F500006F00F0203EBC203D3E9002301F092FF46
:103F600002250023CDE902019A4F3611002E40F0C0
:103F70008380002BE0D10D9B002B00F08A80DDE9CF
:103F80000223CDE90A23DDE90A010022924B02F067
:103F9000EBF900287DD0B8F1000F7AD0049B002BFC
:103FA00036DDDDE90A0100228C4B01F06BFFCDE923
:103FB0000201049E0AF1FF370135284601F0F8FEA0
:103FC000DDE9022301F05EFF0022854B01F0A4FD34
:103FD000A1F15075CDE90A010B95002E5CD1DDE908
:103FE000020100227F4B01F095FD0A9A2B46CDE994
:103FF000020102F0D7F9002840F08182DDE90201D8
:104000000A9A05F1004302F0AFF9002840F07582EA
:10401000DDE90E23CDE90223139B002BC0F24B8177
:10402000BAF10E0F00F34781694B03EBCA03D3E9E2
:104030000023CDE904231F9B002B80F2D780B8F129
:10404000000F00F3D38040F05782DDE90401002225
:10405000644B01F017FFDDE9022302F099F94646AF
:104060004746002840F02D82069B069A5D1C3123AE
:104070000AF1010A137028E2F20705D5D7E90023F7
:1040800001F000FF01230135761008376EE70225A5
:1040900071E75746464690E74D4B03EBC60353E99D
:1040A0000201099B002B48D002460B4600204E49D6
:1040B00002F012F8DDE90A2301F02CFDCDE90A0136
:1040C000069DDDE9020102F08DF9119001F070FE0C
:1040D00002460B46DDE9020101F01CFD119BCDE912
:1040E0000201303305F8013BDDE90A2302F03CF917
:1040F000002863D1DDE902230020374901F00AFDE1
:10410000DDE90A2302F030F9002840F0B580069B73
:10411000EB1A9E427FF77CAFDDE90A0100222F4BAC
:1041200001F0B0FE0022CDE90A01DDE902012B4BCE
:1041300001F0A8FECDE90201C3E7DDE90A2301F0A1
:10414000A1FE069BCDE90A019D191E46DDE902018B
:1041500002F048F9119001F02BFE02460B46DDE912
:10416000020101F0D7FC119BCDE90201303306F8C2
:10417000013BAE424FF0000224D1DDE90A011A4BA7
:1041800001F0CAFC02460B46DDE9020102F00AF921
:10419000002871D1DDE90A230020134901F0BAFC9F
:1041A00002460B46DDE9020102F0DEF800283FF48A
:1041B0002FAF15F8013C6A1E302B01D0BA464AE0F9
:1041C0001546F6E7054B01F05DFECDE90201BDE7BE
:1041D000E0650000B86500000000F03F00002440EA
:1041E00000001C40000014400000E03F069DDDE997
:1041F0000267DDE904233046394601F06DFF02F025
:10420000F1F8814601F0D4FDDDE9042301F03AFE26
:1042100002460B463046394601F07CFC09F1300677
:1042200005F8016B069E0246AE1BB0450B4635D124
:1042300001F072FCDDE9042306460F4602F0B2F8F5
:10424000C8B9DDE904233046394602F083F810B1DD
:1042500019F0010F0FD15946204600F00CFE002343
:10426000209A2B700AF101031360229B002B3FF46C
:10427000F3AC1D60F0E4574615F8012C6B1E392A8B
:1042800006D1069A9A4207D130231370134601379C
:104290001A7801321A7091E71D46EDE70022994B1A
:1042A00001F0F0FD0022002306460F4602F052F80E
:1042B00000289ED0CFE7099A002A00F088801E9A35
:1042C000012A6DDC109A002A66D003F233434D4672
:1042D000089E079A01211A4420469944079200F04B
:1042E000A8FE0746002D0BDD079B002B08DDAB4227
:1042F000A8BF2B46079AA9EB0309ED1AD31A079317
:10430000089BEBB1099B002B65D08EB13946324634
:10431000204600F02DFF5A4601460746204600F091
:1043200091FE59460A90204600F0A5FD0A9B9B4647
:10433000089B9A1B04D05946204600F019FF83467B
:104340000121204600F075FE0C9B0646002B00F074
:10435000C6811A460146204600F00AFF1E9B06460B
:10436000012B3EDC029B002B37D1039BC3F31303CD
:10437000002B34D1039B23F000431B0D1B052BB1F5
:10438000079B09F1010901330793012308930C9B53
:10439000002B28D101202EE0129BC3F1360396E7B3
:1043A000089B08F1FF36B342B7BF089B9E1BF21A69
:1043B0000C9BBFBF08969B180C930026B8F1000F0A
:1043C000B9BFA9EB080500234D46434681E7089E87
:1043D0004D46099F86E7089AADE70023D6E7029B82
:1043E000D4E700230893336906EB8303186900F0D0
:1043F000D2FDC0F12000079B184410F01F0047D0E9
:10440000C0F12003042B3BDD079BC0F11C0081445D
:10441000054403440793B9F1000F05DD59464A46A8
:10442000204600F0F3FE8346079B002B05DD314656
:104430001A46204600F0EAFE06460D9B53B331466D
:10444000584600F037FF002824DA002359460A2294
:10445000204600F027FD099B0AF1FF3A8346002B16
:1044600000F04481002339460A22204600F01AFD5C
:10447000049B0746002B4DDC1E9B022B4ADD11E0FE
:10448000C9D0079A1C331A4499441D441346C1E706
:104490000346F6E7B8F1000F36DC1E9B022B33DD36
:1044A000CDF81080049B63B931460522204600F008
:1044B000F9FC01460646584600F0FCFE00283FF78E
:1044C000D3AD1F9B069D6FEA030A4FF000093146EA
:1044D000204600F0D0FC002F3FF4BDAEB9F1000F34
:1044E00005D0B94503D04946204600F0C4FC394602
:1044F000204600F0C0FCAEE600263746E1E7BA46AB
:104500003746B1E500002440099BCDF81080002B10
:1045100000F0F380002D05DD39462A46204600F0E4
:1045200075FE0746089B002B4CD07968204600F0AA
:104530006EFC05463A6907F10C01023292000C301C
:1045400000F05AFC01222946204600F05FFEB946E1
:104550000746069B0793029B03F00103089331462D
:104560005846FFF7A3FA4946054600F13008584679
:1045700000F0A0FE3A4602903146204600F0B4FE1C
:10458000C368024603BB01460990584600F092FEFC
:104590000346099A11462046099300F06CFC099BDA
:1045A000A3B91E9A92B9089A82B9B8F1390F29D0E5
:1045B000029B002B01DD05F13108079B5D1C83F890
:1045C000008084E73846C2E70123E3E7029A002A25
:1045D00004DB23D11E9A0ABB089AFAB9002BECDD42
:1045E00059460122204600F011FE3146834600F074
:1045F00061FE002803DCE0D118F0010FDDD0B8F136
:10460000390FD8D1079B079A5D1C3923137015F811
:10461000013C6A1E392B4DD0013352E0079A002B22
:1046200002F1010506DDB8F1390FEBD008F1010800
:10463000079BC4E7069B049AEB1A934205F8018C8A
:1046400021D0594600230A22204600F02BFCB94510
:1046500083464FF000034FF00A024946204605D139
:1046600000F020FC81460746079578E700F01AFC29
:104670003946814600230A22204600F013FC0746F3
:10468000F2E74FF0000959460122204600F0BEFD36
:104690003146834600F00EFE0028B8DC02D118F047
:1046A000010FB4D115F8013C6A1E302B7FF40FAF17
:1046B0001546F7E7069B934205D13123069A0AF186
:1046C000010A137003E71546A1E7174BFFF7E1BA9C
:1046D000229B002B7FF4BBAA144BFFF7DABA1E9B78
:1046E000012B7FF73FAE0C9B089353E6049B002BF6
:1046F00003DC1E9B022B3FF7D5AE069D3146584684
:10470000FFF7D4F9069B00F1300805F8018B049AF5
:10471000EB1A9A42B5DD594600230A22204600F0E2
:10472000C1FB8346EAE700BF24650000A0650000E6
:10473000F0B506694B119E4200F1140431DD11F011
:104740001F0104EB860604EB830208D12146B24226
:104750000B4611D252F8043B41F8043BF7E754F8FA
:1047600023502346C1F1200CCD400432B2421746FB
:104770000DD31D6005B10433A342A3EB040208BFAF
:1047800000234FEAA202026108BF4361F0BD3F6807
:1047900007FA0CF73D4343F8045B52F8045BCD4045
:1047A000E4E72346E8E7A0F13003092B02D82038DC
:1047B000C0B27047A0F16103052B01D84738F7E775
:1047C000A0F14103052B01D82738F1E700207047FD
:1047D0002DE9F04F8BB0029016988A4690460693CA
:1047E00000F0D1FA03684FF0000B18460393FEF770
:1047F00095FA039B0190034413F8013C0793DAF800
:10480000003002331F4613F8010B30286CD0FFF73D
:10481000CAFF044600286AD1019A0399384601F07C
:1048200005F9002866D1019BF85CFE18FFF7BBFF75
:10483000002862D0334618781F46302803F1010360
:10484000F9D0FFF7B0FFB0FA80F534464FF0010B16
:104850006D093A46164630780132FFF7A4FF00286A
:10486000F8D1019A0399304601F0E0F850B954B9F3
:10487000019BF4182246164630780132FFF793FF69
:104880000028F8D10CB1A41BA4003378502B01D020
:10489000702B40D173782B2B31D02D2B33D04FF090
:1048A0000009711C0878FFF77EFF431EDBB2182B4E
:1048B00031D8A0F1100211F8010FFFF774FF431E69
:1048C000DBB2182B22D9B9F1000F00D052421444A8
:1048D000CAF800100DB3BBF1000F0CBF062700276C
:1048E00038460BB0BDE8F08F0BF1010B8AE70025CD
:1048F0002C46AEE73E460125C7E70446FBE74FF0EE
:104900000009B11CCEE74FF00109FAE70A2303FBC7
:104910000202103ACFE73146DAE72946F31B013BA2
:10492000072B49DC029800F072FA4FF0000B0546A5
:10493000DA46019B00F11409C3F10103CDF8109090
:104940000893B7423BD3049840F804ABA0EB0900AE
:10495000801028614701504600F01DFBD8F8006028
:104960003F1AB74264DDBF1B3946284600F027FED8
:10497000824678B14FF0010A7B1E591103F01F02E5
:1049800059F821100AFA02F20A4203D0534546DCD4
:104990004FF0020A39462846FFF7CAFE3C44D8F8D1
:1049A0000830A34252DA2946029800F064FA002344
:1049B000149AA327136093E701315B10B0E7731ECD
:1049C0000593079A16F8013C934218D0BBF1200FCB
:1049D00007D1049BC3F800A04FF0000AD34604336C
:1049E000049316F8010CFFF7DEFE00F00F0000FA4A
:1049F0000BF04AEA000A0BF1040B059B0DE0059B46
:104A0000089A1344BB42E1D31846019A03990993CB
:104A100001F00CF8099B0028D8D11E4691E7B91E79
:104A2000284600F0CCFD0028B2D04FF0030AB1E7D1
:104A300009DAF71B29463A46029800F0E7FB0546DB
:104A4000E41B00F114094FF0000AA8E7D8F80400AD
:104A5000A0426BDD041BA6422EDCD8F80C30022BE2
:104A600022D0032B24D0012B15D1A64213D1012E25
:104A70000BDCD8F80430069A6227136001232B61FF
:104A8000C9F80030149B1D602AE7711E284600F00B
:104A900096FD0028EDD12946029800F0ECF900239C
:104AA000149A502713601BE7159B002BE1D0F2E707
:104AB000159B002BDDD1EEE7671EBAF1000F32D156
:104AC00027B13946284600F07AFD824601237A1143
:104AD00007F01F0703FA07F759F8223021461F4253
:104AE0004FF00207284618BF4AF0020A361BFFF7AC
:104AF0001FFED8F80440BAF1000F48D0D8F80C30A7
:104B0000022B15D0032B17D0012B09D11AF0020F5D
:104B100006D0D9F800304AEA030A1AF0010F0ED184
:104B200047F0100733E04FF0010ACFE70127E2E733
:104B3000159BC3F101031593159B002BF0D04FF08B
:104B4000000CD5F8109005F114034FEA890A03EB25
:104B50000A01184653F8042BB2F1FF3F1CD0013272
:104B60000260022F05F1140338D1D8F80020013A71
:104B7000B2420AD10122711153F8213006F01F060A
:104B800002FA06F61E4218BF174647F02007149B8C
:104B90001D60069B1C60A3E6994243F804CCD8D85C
:104BA000AB68994512DB69680298013100F02FF972
:104BB00083462A6905F10C01023292000C3000F0A4
:104BC0001BF92946029800F056F95D462B695A1CDC
:104BD0002A61012205EB83035A61C2E72A694A452B
:104BE0000BDD01212846FFF7A3FDD8F8083001347A
:104BF000A342FFF6D8AE0127C7E716F01F06FAD08A
:104C00009A445AF8040C00F0C6F9C6F12006B042E6
:104C1000E7DBF0E7C2F10802920070B5C2F12006AE
:104C20004368046803FA06F52C43D340046040F857
:104C3000043F8842F4D370BD30B50368013311F8E6
:104C4000014B14B90360012030BD13F8012BA2F110
:104C50004105192D98BF2032A242F0D00020F3E781
:104C60002DE9F04F00250B6882465F1102EB8707A4
:104C700013F01F0318BF04373E1F9046B146344659
:104C8000AB4687B00168019347F8045C02954A7807
:104C90004B1C039342B3104605910492FFF783FD2A
:104CA000002843D1049A0599202A18D8029B9B45D5
:104CB00013DD4C4506D2072D04DC2A464946204622
:104CC000FFF7A8FF444544D90023A4F1040944F8A0
:104CD000043C1D464C46CDF808B00399D7E7292A75
:104CE0004AD10231CAF80010BBF1000F44D04C4544
:104CF00006D2072D04DC2A4649462046FFF78AFFE4
:104D0000444528D9434654F8042BA64243F8042BC3
:104D1000F9D2002243F8042B9E42FBD233681BB920
:104D2000464527D101233360052026E00135082DB3
:104D30000BF1010B06DD4445CFD90023012544F8D2
:104D4000043C043C226800F00F0040EA021020609E
:104D5000C3E70825C1E7019B002BDFD04FF0FF32EE
:104D6000C3F1200322FA03F357F8042C1A4047F842
:104D7000042CD3E7043ED1E7042007B0BDE8F08F50
:104D8000D0F8EC007047F03070470000044B1B680F
:104D9000186A044B002808BF1846F030704700BF5F
:104DA0001000002074000020024B0146186800F03B
:104DB00081BC00BF1000002082B001B901A942B13E
:104DC0004BB113780B601278101C18BF012002B091
:104DD00070471046FBE76FF00100F8E710B5C9B265
:104DE00002449042034601D1002303E01C780130C5
:104DF0008C42F6D1184610BD10B5431E0A449142AC
:104E000000D110BD11F8014B03F8014FF7E770B561
:104E1000456A04460E463DB91020FFF7C5FF6062A3
:104E2000C0E901550560C560656AEB6883B1636AD6
:104E3000DB6853F82600B8B9012101FA06F56A1DAE
:104E40009200204600F0DCFB60B1C0E901650EE095
:104E500021220421204600F0D3FB636AE860DB686E
:104E6000002BE4D1002070BD026843F82620002307
:104E7000C0E90333F7E770B5446A06460D463CB90E
:104E80001020FFF791FF7062C0E901440460C46024
:104E90003DB1736A6A68DB6853F82210296043F8F1
:104EA000225070BD2DE9F0411F4606460C460023F6
:104EB0000D6901F1140CDCF80000013381B202FB32
:104EC0000171000C0F0C02FB007089B201EB004174
:104ED0009D424FEA10474CF8041BECDCD7B1A368A5
:104EE000AB4212DC616830460131FFF790FF80462B
:104EF000226904F10C01023292000C30FFF77CFFB2
:104F000021463046FFF7B7FF444604EB85030135E1
:104F10005F6125612046BDE8F0812DE9F843154623
:104F200009221F4608330C4693FBF2F30646012282
:104F300000219A4220DB3046FFF769FF089B092DCC
:104F400043614FF00103036119DD04F10908C14613
:104F50002C4419F8013B0146303B0A223046FFF74A
:104F6000A1FFA145F5D108EB0504083C2D1B6319F1
:104F7000BB4207DBBDE8F88352000131D9E70A34B0
:104F80000925F3E714F8013B0146303B0A2230467D
:104F9000FFF788FFEBE7020C12040346B2B90304E3
:104FA000102013F07F4F04BF1B02083013F0704F26
:104FB00004BF1B01043013F0404F04BF9B000230BC
:104FC000002B06DB5B0003D5013070470020E8E7CB
:104FD000202070470368014613F007020BD0DA0760
:104FE00023D4980749BF5B089B0801200B605CBF76
:104FF0000B600220704798B2A8B910201B0C13F068
:10500000FF0F04BF1B0A08301A0704BF1B09043036
:105010009A0704BF9B080230DA0702D45B0806D067
:1050200001300B6070471046E9E7002070472020F0
:10503000704710B50C460121FFF7E9FE01224461DB
:10504000026110BD2DE9F74F14460A6923698846AD
:105050009A42BEBF0B46A0461C46D8F81070D4F842
:105060001090D8F80830D8F8041007EB0906B342BE
:10507000B8BF0131FFF7CBFE00F114052B4600222B
:1050800005EB860E734516D304F1140208F11401E2
:1050900002EB890301EB87070093009B0192934287
:1050A0000CD8002E03DD5EF8043D002B5DD00661B8
:1050B00003B0BDE8F08F43F8042BE3E7B2F800B08B
:1050C000BBF1000F23D08946AC464FF0000859F8D9
:1050D000044BDCF800A0A3B21FFA8AFA0BFB03A36F
:1050E0004FEA144ADCF8004043444FEA14480BFBF3
:1050F0000A84E24604EB13449BB243EA04434F455F
:105100004FEA14484AF8043B2BD8CCF80480019BA2
:105110000432B3F802A0BAF1000F20D08946A846A5
:105120004FF0000B2B68B9F800C0B8F802409BB2F2
:105130000AFB0C44C4465C4443EA04434CF8043B79
:1051400059F8043BB8F804B01B0C0AFB03B34F45F5
:1051500003EB14434FEA134B05D8C8F80430043569
:105160009BE7D446B3E7E046DDE7013E99E7000060
:105170002DE9F843154612F0030206460F4607D004
:10518000214C013A002354F82220FFF78BFE0746FA
:10519000AD1035D0746A3CB91020FFF705FE70627F
:1051A000C0E901440460C460D6F82480D8F80840FF
:1051B0004CB940F271213046FFF73BFF0023044613
:1051C000C8F8080003604FF00008EB070AD539461D
:1051D00022463046FFF736FF814639463046FFF714
:1051E0004AFE4F466D100BD0206838B92246214642
:1051F0003046FFF727FF2060C0F800800446E4E750
:105200003846BDE8F88300BFA86600002DE9F047E6
:105210000C460746164623694FEA621A0AEB030951
:105220004968A36809F10105AB4232DB3846FFF754
:10523000EEFD002380461A4600F1140153452BDB96
:1052400020692AEAEA7A04F1140316F01F0201EB3E
:105250008A0103EB800C25D00020C2F1200E8A4683
:105260001E68964030434AF8040B53F8040B9C45E3
:1052700020FA0EF014D8486008B109F10205013D8A
:105280003846C8F810502146FFF7F5FD4046BDE806
:10529000F08701315B00C7E741F823200133CDE7F8
:1052A0005146DCE7043953F8042B9C4541F8042FA0
:1052B000F9D8E4E703690A6930B59B1A0CD192006A
:1052C000143014318418114454F8045D51F8042D3D
:1052D000954203D005D30123184630BDA042F3D335
:1052E000FAE74FF0FF33F7E72DE9F0470D460746A1
:1052F000114628461446FFF7DDFF061E08D1314649
:105300003846FFF784FD0123C0E90436BDE8F08785
:10531000A4BF23462C4638466168A6BF1D4600261A
:105320000126FFF774FD4FF0000EC6602B69266959
:1053300004F1140205F1140902EB860709EB830856
:1053400000F1140152F804AB59F8045B1FFA8AF318
:105350007344ACB21B1B2C0CC4EB1A4404EB234467
:105360009BB24FEA244EC84543EA0444944641F8B0
:10537000044BE7D8BC4504D351F8043D83B1066122
:10538000C4E75CF8044BA2B27244131403EB144359
:1053900092B242EA03424FEA234E41F8042BE9E776
:1053A000013EE9E7104B0B40A3F15073002B02DDE7
:1053B0000020194670475B421B15132B4FF000006D
:1053C0004FF0000104DC4FF4002242FA03F1704771
:1053D0000122143B1E2BCEBF1346C3F11F0302FA5A
:1053E00003F31846704700BF0000F07F2DE9F84333
:1053F000076900F1140909EB870757F8046CA7F156
:1054000004083046FFF7C7FDC0F120030A280B60EF
:105410001E4917DCC14528BF0022C0F10B0C26FA3B
:105420000CF338BF57F8082C43EA010500F11503C7
:1054300006FA03F322FA0CF243EA02042046294654
:10544000BDE8F883C1453ABFA7F1080857F8082C12
:105450000022B0F10B0315D09E40C3F1200746F0A7
:105460007F5622FA07F1C84546F4401646EA010580
:1054700094BF002158F8041C02FA03F0F94040EAF6
:105480000104DBE746EA01051446D7E70000F03FD8
:105490002DE9F3411C46DDE9086501219046FFF73F
:1054A000B6FCC4F31302C4F30A54074634BB01929A
:1054B000B8F1000227D002A840F8082DFFF78AFDB6
:1054C0000099F0B1019AC0F1200302FA03F30B43F3
:1054D000C2407B610192019B002B14BF022101217C
:1054E000BB613961C4B1A4F2334404443460C0F1F7
:1054F00035002860384602B0BDE8F08142F48012E1
:10550000D5E77961E7E701A8FFF764FD0121019B79
:1055100039617B612030E5E7A0F2324007EB81037F
:1055200030601869FFF737FDC0EB4110E1E72DE966
:10553000F74F884669468146FFF758FF8B46064677
:105540000F46404601A9FFF751FFD9F81030D8F8AF
:1055500010200D46A3EB020CDDE900329B1A03EB91
:105560004C13002BD5BF0A463A46C3EB033302EB7C
:10557000035BD8BF02EB03552B4602465946304623
:1055800000F0AAFD03B0BDE8F08F013910B5491154
:105590001469013102F1140300EB810103EB84046F
:1055A000A342024603D300238A4205D310BD53F819
:1055B000042B40F8042BF3E742F8043BF4E700F136
:1055C000140200694B11984210B511DB0ADD11F08D
:1055D0001F0107D052F8234024FA01F000FA01F12C
:1055E0008C420BD102EB8303934203D8002010BD01
:1055F0000346F7E753F8041D0029F5D00120F6E72C
:1056000038B502FB01F4214600F054F8054618B104
:105610002246002100F042FA284638BD38B505463A
:10562000002943D051F8043C0C1F002BB8BFE418EC
:1056300000F03CFA1E4A1368104633B963601460E8
:105640002846BDE8384000F032BAA3420BD92168A1
:105650006218934201BF1A685B6852182260636047
:105660000460EDE713465A680AB1A242FAD91968F4
:105670005818A0420BD12068014458188242196082
:10568000DED110685268014419605A60D8E702D927
:105690000C232B60D4E7206821188A4201BF1168CF
:1056A00052680918216062605C60C9E738BD00BFBC
:1056B0001C02002070B5CD1C25F0030508350C2D0B
:1056C00038BF0C25002D064601DBA94203D90C2367
:1056D0003360002070BD00F0E9F9214A14682146CA
:1056E00091B9204C23681BB9304600F08FF9206037
:1056F0002946304600F08AF9431C24D10C23304659
:10570000336000F0D4F9E4E70B685B1B18D40B2B73
:105710000FD90B60CC18CD50304600F0C8F904F119
:105720000B00231D20F00700C31AD3D05A42E250C9
:10573000D0E74B688C4216BF636013600C46EBE702
:105740000C464968CCE7C41C24F00304A04205D0F1
:10575000211A304600F05AF90130CFD02560DBE73E
:105760001C020020200200202DE9F0478E688246AE
:105770009E420C469046994637D88A8912F4906F1B
:1057800031D00223256809696F1A656905EB450563
:1057900095FBF3F509F101033B449D4238BF1D46DB
:1057A000530530D52946FFF785FF064650B90C232F
:1057B0004FF0FF30CAF80030A38943F04003A381C3
:1057C000BDE8F0873A462169FFF716FBA38923F469
:1057D000906343F08003A38126613E4426604E46D9
:1057E0006561ED1BA5604E4500D94E4632464146E7
:1057F000206800F03AF9A36800209B1BA36023688F
:105800001E442660DCE72A4600F052F906460028CE
:10581000E2D121695046FFF701FFC8E72DE9F04FBB
:105820001D468B899DB01F0680460C4616460FD537
:105830000B696BB94021FFF73DFF2060206128B95B
:105840000C23C8F800304FF0FF30C8E040236361FC
:105850000023099320238DF8293030234FF0010BCA
:105860008DF82A30039537463D4615F8013B0BB1BC
:10587000252B3ED1B7EB060A0BD0534632462146C4
:105880004046FFF771FF013000F0A480099B5344AC
:1058900009933B78002B00F09D8000234FF0FF32EE
:1058A000CDE90523049307938DF853301A932F46BF
:1058B000052217F8011B5048FFF790FA049BD0B956
:1058C000D90644BF20228DF853201A0744BF2B224B
:1058D0008DF853202A782A2A15D02F4600200A2531
:1058E000079A394611F8013B303B092B4DD9B8B125
:1058F0000FE02F46B8E7404A3D46801A0BFA00F009
:1059000018430490D3E7039A111D12680391002AEB
:1059100001DB079204E0524243F002030792049332
:105920003B782E2B0CD17B782A2B33D1039B02376B
:105930001A1D1B680392002BB8BF4FF0FF3305936D
:105940002E4D032239782846FFF748FA38B1402314
:10595000401B03FA00F0049B01370343049339789A
:10596000062227487E1C8DF82810FFF737FA0028FA
:1059700038D0244B13BB039B073323F007030833B2
:105980000393099B4B4409936DE705FB0232012009
:105990000F46A6E700230A25194601370593384626
:1059A00010F8012B303A092A03D9002BC8D00591F1
:1059B000C6E705FB012101230746F0E703AB00938F
:1059C0002246114B04A94046FCF7E6FBB0F1FF3F2D
:1059D0008146D6D1A3895B063FF535AF09981DB046
:1059E000BDE8F08F03AB00932246074B04A9404665
:1059F000FCF77EFEEAE700BFB4660000BA6600006E
:105A0000BE660000992100006957000038B50023E8
:105A1000054C054608462360FCF7FCFA431C02D1FE
:105A2000236803B12B6038BD3002002010B56AB185
:105A30000139841810F8013B11F8012F934203D16A
:105A4000A04201D0002BF5D1981A10BD1046FCE7FA
:105A500049B1FF2A8BBF8A230A700360012088BFE7
:105A60004FF0FF30704708467047884210B501EB91
:105A7000020307D8421E99420AD011F8014B02F8DE
:105A8000014FF8E78342F5D98118D21AD34200D1E9
:105A900010BD13F8014D01F8014DF7E7034602442C
:105AA000934200D1704703F8011BF9E77047704734
:105AB000F8B5074614460E4621B9BDE8F840114630
:105AC000FFF7F8BD22B9FFF7A9FD25462846F8BD26
:105AD00000F014F8A0420FD221463846FFF7EAFD45
:105AE00005460028F2D031462246FFF785F93146B7
:105AF0003846FFF793FDE9E73546E7E751F8043C00
:105B0000181F002BBCBF0B58C018704781F0004114
:105B100002E000BF83F0004330B54FEA41044FEA92
:105B2000430594EA050F08BF90EA020F1FBF54EA2D
:105B3000000C55EA020C7FEA645C7FEA655C00F0C9
:105B4000E2804FEA5454D4EB5555B8BF6D420CDD9A
:105B50002C4480EA020281EA030382EA000083EA1D
:105B6000010180EA020281EA0303362D88BF30BDBD
:105B700011F0004F4FEA01314FF4801C4CEA113113
:105B800002D0404261EB410113F0004F4FEA033372
:105B90004CEA133302D0524263EB430394EA050FFD
:105BA00000F0A780A4F10104D5F1200E0DDB02FA6C
:105BB0000EFC22FA05F2801841F1000103FA0EF200
:105BC000801843FA05F359410EE0A5F120050EF1C6
:105BD000200E012A03FA0EFC28BF4CF0020C43FAF7
:105BE00005F3C01851EBE37101F0004507D54FF004
:105BF000000EDCF1000C7EEB00006EEB0101B1F554
:105C0000801F1BD3B1F5001F0CD349085FEA300099
:105C10004FEA3C0C04F101044FEA445212F5800FA4
:105C200080F09A80BCF1004F08BF5FEA500C50F141
:105C3000000041EB045141EA050130BD5FEA4C0C24
:105C4000404141EB010111F4801FA4F10104E9D1AD
:105C500091F0000F04BF01460020B1FA81F308BFA4
:105C60002033A3F10B03B3F120020CDA0C3208DD70
:105C700002F1140CC2F10C0201FA0CF021FA02F14B
:105C80000CE002F11402D8BFC2F1200C01FA02F1BB
:105C900020FA0CFCDCBF41EA0C019040E41AA2BFE0
:105CA00001EB0451294330BD6FEA04041F3C1CDAA8
:105CB0000C340EDC04F11404C4F1200220FA04F0C8
:105CC00001FA02F340EA030021FA04F345EA030172
:105CD00030BDC4F10C04C4F1200220FA02F001FA34
:105CE00004F340EA0300294630BD21FA04F02946B6
:105CF00030BD94F0000F83F4801306BF81F480114F
:105D00000134013D4EE77FEA645C18BF7FEA655CC1
:105D100029D094EA050F08BF90EA020F05D054EA93
:105D2000000C04BF1946104630BD91EA030F1EBF98
:105D30000021002030BD5FEA545C05D1400049419C
:105D400028BF41F0004130BD14F580043CBF01F58F
:105D5000801130BD01F0004545F0FE4141F4700175
:105D60004FF0000030BD7FEA645C1ABF1946104650
:105D70007FEA655C1CBF0B46024650EA013406BF51
:105D800052EA033591EA030F41F4002130BD00BF10
:105D900090F0000F04BF0021704730B54FF48064CD
:105DA00004F132044FF000054FF0000150E700BF4E
:105DB00090F0000F04BF0021704730B54FF48064AD
:105DC00004F1320410F0004548BF40424FF000019A
:105DD0003EE700BF42004FEAE2014FEA31014FEADD
:105DE00002701FBF12F07F4393F07F4F81F060512C
:105DF000704732F07F4208BF704793F07F4F04BF77
:105E000041F40021704730B54FF4607401F0004553
:105E100021F000411CE700BF50EA010208BF7047B3
:105E200030B54FF000050AE050EA010208BF7047A4
:105E300030B511F0004502D5404261EB41014FF40D
:105E4000806404F132045FEA915C3FF4D8AE4FF015
:105E500003025FEADC0C18BF03325FEADC0C18BFF8
:105E6000033202EBDC02C2F1200300FA03FC20FA49
:105E700002F001FA03FE40EA0E0021FA02F1144496
:105E8000BDE600BF70B54FF0FF0C4CF4E06C1CEAAF
:105E900011541DBF1CEA135594EA0C0F95EA0C0F20
:105EA00000F0DEF82C4481EA030621EA4C5123EA93
:105EB0004C5350EA013518BF52EA033541F48011C2
:105EC00043F4801338D0A0FB02CE4FF00005E1FB75
:105ED00002E506F00042E0FB03E54FF00006E1FBBF
:105EE00003569CF0000F18BF4EF0010EA4F1FF0402
:105EF000B6F5007F64F5407404D25FEA4E0E6D4142
:105F000046EB060642EAC62141EA55514FEAC52052
:105F100040EA5E504FEACE2EB4F1FD0C88BFBCF5CE
:105F2000E06F1ED8BEF1004F08BF5FEA500E50F17F
:105F3000000041EB045170BD06F0004646EA010145
:105F400040EA020081EA0301B4EB5C04C2BFD4EB77
:105F50000C0541EA045170BD41F480114FF0000E70
:105F6000013C00F3AB8014F1360FDEBF002001F0DE
:105F7000004170BDC4F10004203C35DA0C341BDC58
:105F800004F11404C4F1200500FA05F320FA04F02A
:105F900001FA05F240EA020001F0004221F000415E
:105FA00010EBD37021FA04F642EB06015EEA430ED1
:105FB00008BF20EAD37070BDC4F10C04C4F1200501
:105FC00000FA04F320FA05F001FA04F240EA0200B4
:105FD00001F0004110EBD37041F100015EEA430E85
:105FE00008BF20EAD37070BDC4F1200500FA05F2A5
:105FF0004EEA020E20FA04F301FA05F243EA020324
:1060000021FA04F001F0004121FA04F220EA020032
:1060100000EBD3705EEA430E08BF20EAD37070BD78
:1060200094F0000F0FD101F00046400041EB010158
:1060300011F4801F08BF013CF7D041EA060195F03A
:10604000000F18BF704703F00046520043EB0303F4
:1060500013F4801F08BF013DF7D043EA06037047E1
:1060600094EA0C0F0CEA135518BF95EA0C0F0CD0EC
:1060700050EA410618BF52EA4306D1D181EA030132
:1060800001F000414FF0000070BD50EA410606BF2C
:106090001046194652EA430619D094EA0C0F02D171
:1060A00050EA013613D195EA0C0F05D152EA0336B6
:1060B0001CBF104619460AD181EA030101F00041D4
:1060C00041F0FE4141F470014FF0000070BD41F01D
:1060D000FE4141F4780170BD70B54FF0FF0C4CF4F7
:1060E000E06C1CEA11541DBF1CEA135594EA0C0F16
:1060F00095EA0C0F00F0A7F8A4EB050481EA030E63
:1061000052EA03354FEA013100F088804FEA033349
:106110004FF0805545EA131343EA12634FEA022217
:1061200045EA111545EA10654FEA00260EF00041D8
:106130009D4208BF964244F1FD0404F5407402D22A
:106140005B084FEA3202B61A65EB03055B084FEABB
:1061500032024FF480104FF4002CB6EB020E75EBB8
:10616000030E22BFB61A754640EA0C005B084FEAE0
:106170003202B6EB020E75EB030E22BFB61A75465D
:1061800040EA5C005B084FEA3202B6EB020E75EBA8
:10619000030E22BFB61A754640EA9C005B084FEA20
:1061A0003202B6EB020E75EB030E22BFB61A75462D
:1061B00040EADC0055EA060E18D04FEA051545EA1C
:1061C00016754FEA06164FEAC30343EA52734FEAC5
:1061D000C2025FEA1C1CC0D111F4801F0BD141EA3E
:1061E00000014FF000004FF0004CB6E711F4801FA3
:1061F00004BF01430020B4F1FD0C88BFBCF5E06F83
:106200003FF6AFAEB5EB030C04BFB6EB020C5FEA92
:10621000500C50F1000041EB045170BD0EF0004EE7
:106220004EEA113114EB5C04C2BFD4EB0C0541EA19
:10623000045170BD41F480114FF0000E013C90E616
:1062400045EA060E8DE60CEA135594EA0C0F08BFDA
:1062500095EA0C0F3FF43BAF94EA0C0F0AD150EAD9
:1062600001347FF434AF95EA0C0F7FF425AF10466C
:1062700019462CE795EA0C0F06D152EA03353FF494
:10628000FDAE1046194622E750EA410618BF52EA11
:1062900043067FF4C5AE50EA41047FF40DAF52EAE5
:1062A00043057FF4EBAE12E74FF0FF3C06E000BF82
:1062B0004FF0010C02E000BF4FF0010C4DF804CD8F
:1062C0004FEA410C7FEA6C5C4FEA430C18BF7FEA4F
:1062D0006C5C1BD001B050EA410C0CBF52EA430C7D
:1062E00091EA030F02BF90EA020F0020704710F1FD
:1062F000000F91EA030F58BF994208BF90422CBF8C
:10630000D8176FEAE37040F0010070474FEA410C84
:106310007FEA6C5C02D150EA013C07D14FEA430CA2
:106320007FEA6C5CD6D152EA033CD3D05DF8040B13
:10633000704700BF8446104662468C461946634645
:1063400000E000BF01B5FFF7B7FF002848BF10F11C
:10635000000F01BD4DF808EDFFF7F4FF0CBF012061
:1063600000205DF808FB00BF4DF808EDFFF7EAFFDD
:1063700034BF012000205DF808FB00BF4DF808ED98
:10638000FFF7E0FF94BF012000205DF808FB00BF8D
:106390004DF808EDFFF7CEFF94BF012000205DF817
:1063A00008FB00BF4DF808EDFFF7C4FF34BF012024
:1063B00000205DF808FB00BF4FEA410C7FEA6C5CEF
:1063C00002D150EA013C0AD14FEA430C7FEA6C5CEF
:1063D00002D152EA033C02D14FF0000070474FF067
:1063E000010070474FEA410212F5001215D211D593
:1063F0006FF47873B3EB625212D94FEAC12343F0C2
:10640000004343EA505311F0004F23FA02F018BF43
:10641000404270474FF00000704750EA013005D10C
:1064200011F0004008BF6FF0004070474FF00000CF
:10643000704700BF4A0011D212F5001211D20DD5DB
:106440006FF47873B3EB62520ED44FEAC12343F07A
:10645000004343EA505323FA02F070474FF0000024
:10646000704750EA013002D14FF0FF3070474FF0D3
:10647000000070474FEA4102B2F1E04324BFB3F598
:10648000001CDCF1FE5C0DD901F0004C4FEAC002AB
:106490004CEA5070B2F1004F40EB830008BF20F08F
:1064A0000100704711F0804F21D113F13872BCBF49
:1064B00001F00040704741F480114FEA5252C2F19E
:1064C0001802C2F1200C10FA0CF320FA02F018BFE7
:1064D00040F001004FEAC1234FEAD32303FA0CFC3A
:1064E00040EA0C0023FA02F34FEA4303CCE77FEAC9
:1064F000625307D150EA01331EBF4FF0FE4040F413
:106500004000704701F0004040F0FE4040F40000C1
:10651000704700BF494E4600696E66004E414E000E
:106520006E616E00300030313233343536373839F1
:1065300041424344454600303132333435363738F2
:10654000396162636465660065256C640000000063
:1065500035000000CEFBFFFFCB0300000100000070
:106560000000000034000000CEFBFFFFCB03000062
:106570000100000000000000BC89D897B2D29C3C0A
:1065800033A7A8D523F649393DA7F444FD0FA5321A
:106590009D978CCF08BA5B25436FAC6428066811C1
:1065A000496E66696E697479004E614E0043005011
:1065B0004F534958002E00000080E03779C3414313
:1065C000176E05B5B5B89346F5F93FE9034F384D59
:1065D000321D30F94877825A3CBF737FDD4F157505
:1065E000000000000000F03F000000000000244018
:1065F00000000000000059400000000000408F40F3
:10660000000000000088C34000000000006AF8405D
:106610000000000080842E4100000000D012634181
:106620000000000084D797410000000065CDCD41F7
:10663000000000205FA00242000000E876483742D8
:10664000000000A2941A6D42000040E59C30A24276
:106650000000901EC4BCD64200003426F56B0C43EB
:106660000080E03779C3414300A0D8855734764392
:1066700000C84E676DC1AB43003D9160E458E143F3
:10668000408CB5781DAF154450EFE2D6E41A4B4468
:1066900092D54D06CFF08044F64AE1C7022DB544AD
:1066A000B49DD9794378EA44050000001900000040
:1066B0007D000000232D302B2000686C4C006566A7
:1066C0006745464700002020202020202020202849
:1066D000282828282020202020202020202020209A
:1066E00020202020202088101010101010101010D2
:1066F0001010101010100404040404040404040412
:106700001010101010101041414141414101010190
:106710000101010101010101010101010101010169
:106720000110101010101042424242424202020276
:106730000202020202020202020202020202020239
:1067400002101010102000000000000000000000E7
:106750000000000000000000000000000000000039
:106760000000000000000000000000000000000029
:106770000000000000000000000000000000000019
:106780000000000000000000000000000000000009
:1067900000000000000000000000000000000000F9
:1067A00000000000000000000000000000000000E9
:1067B00000000000000000000000000000000000D9
:1067C00000000000000000000000000000000000C9
:1067D00000000000000000000000000000000000B9
:1067E00000000000000000000000000000000000A9
:1067F0000000000000000000000000000000000099
:10680000785634120024F400180200200000000022
:106810001400002000000000000000000000000044
:106820000000000000000000000000000000000068
:106830000000000000000000000000000000000058
:106840000000000000000000000000000000000048
:106850000000000000000000000000000000000038
:106860000000000000000000000000000000000028
:1068700000000000430000000000000000000000D5
:106880000000000000000000000000000000000008
:1068900000000000430000000000000000000000B5
:1068A00000000000000000000000000000000000E8
:1068B0000000000043000000000000000000000095
:1068C00000000000000000000000000000000000C8
:1068D0000000000043000000000000000000000075
:1068E00000000000000000000000000000000000A8
:1068F0000000000043000000000000000000000055
:106900000000000000000000000000000000000087
:106910000000000043000000000000000000000034
:106920000000000000000000000000000000000067
:106930000000000043000000000000000000000014
:106940000000000000000000000000000000000047
:1069500000000000515A0000B94D00000000000086
:10696000C5660000B5650000B9660000B9660000A4
:10697000B9660000B9660000B9660000B96600009B
:10698000B9660000B9660000B9660000FFFFFFFFAE
:10699000FFFFFFFFFFFFFFFFFFFF0000010041536C
:1069A0004349490000000000000000000000000012
:1069B0000000000000000000000000000000415343
:1069C00043494900000000000000000000000000F2
:1069D00000000000000000000000000000000000B7
:0469E000325476981F
:0400000300001A35AA
:00000001FF
